{
  "_format": "hh-sol-artifact-1",
  "contractName": "Voting",
  "sourceName": "contracts/Voting.sol",
  "abi": [
    {
      "inputs": [],
      "stateMutability": "nonpayable",
      "type": "constructor"
    },
    {
      "anonymous": false,
      "inputs": [
        {
          "indexed": true,
          "internalType": "uint256",
          "name": "candidateId",
          "type": "uint256"
        },
        {
          "indexed": false,
          "internalType": "string",
          "name": "name",
          "type": "string"
        }
      ],
      "name": "CandidateRegistered",
      "type": "event"
    },
    {
      "anonymous": false,
      "inputs": [
        {
          "indexed": true,
          "internalType": "address",
          "name": "voter",
          "type": "address"
        },
        {
          "indexed": true,
          "internalType": "uint256",
          "name": "candidateId",
          "type": "uint256"
        }
      ],
      "name": "Voted",
      "type": "event"
    },
    {
      "anonymous": false,
      "inputs": [],
      "name": "VotingClosed",
      "type": "event"
    },
    {
      "anonymous": false,
      "inputs": [],
      "name": "VotingStarted",
      "type": "event"
    },
    {
      "inputs": [],
      "name": "admin",
      "outputs": [
        {
          "internalType": "address",
          "name": "",
          "type": "address"
        }
      ],
      "stateMutability": "view",
      "type": "function"
    },
    {
      "inputs": [
        {
          "internalType": "uint256",
          "name": "",
          "type": "uint256"
        }
      ],
      "name": "candidates",
      "outputs": [
        {
          "internalType": "string",
          "name": "name",
          "type": "string"
        },
        {
          "internalType": "uint256",
          "name": "voteCount",
          "type": "uint256"
        }
      ],
      "stateMutability": "view",
      "type": "function"
    },
    {
      "inputs": [],
      "name": "closeVoting",
      "outputs": [],
      "stateMutability": "nonpayable",
      "type": "function"
    },
    {
      "inputs": [],
      "name": "getCandidates",
      "outputs": [
        {
          "components": [
            {
              "internalType": "string",
              "name": "name",
              "type": "string"
            },
            {
              "internalType": "uint256",
              "name": "voteCount",
              "type": "uint256"
            }
          ],
          "internalType": "struct Voting.Candidate[]",
          "name": "",
          "type": "tuple[]"
        }
      ],
      "stateMutability": "view",
      "type": "function"
    },
    {
      "inputs": [
        {
          "internalType": "address",
          "name": "",
          "type": "address"
        }
      ],
      "name": "hasVoted",
      "outputs": [
        {
          "internalType": "bool",
          "name": "",
          "type": "bool"
        }
      ],
      "stateMutability": "view",
      "type": "function"
    },
    {
      "inputs": [
        {
          "internalType": "string",
          "name": "name",
          "type": "string"
        }
      ],
      "name": "registerCandidate",
      "outputs": [],
      "stateMutability": "nonpayable",
      "type": "function"
    },
    {
      "inputs": [],
      "name": "startVoting",
      "outputs": [],
      "stateMutability": "nonpayable",
      "type": "function"
    },
    {
      "inputs": [
        {
          "internalType": "uint256",
          "name": "candidateId",
          "type": "uint256"
        }
      ],
      "name": "vote",
      "outputs": [],
      "stateMutability": "nonpayable",
      "type": "function"
    },
    {
      "inputs": [],
      "name": "votingOpen",
      "outputs": [
        {
          "internalType": "bool",
          "name": "",
          "type": "bool"
        }
      ],
      "stateMutability": "view",
      "type": "function"
    }
  ],
  "bytecode": "0x608060405234801561001057600080fd5b50600080546001600160a01b03191633179055610b84806100326000396000f3fe608060405234801561001057600080fd5b50600436106100935760003560e01c80633477ee2e116100665780633477ee2e146101065780639eb88db614610127578063a95824b41461013a578063c631b2921461014e578063f851a4401461015657600080fd5b80630121b93f1461009857806306a49fce146100ad57806309eef43e146100cb5780631ec6b60a146100fe575b600080fd5b6100ab6100a63660046107a7565b610181565b005b6100b56102ea565b6040516100c29190610806565b60405180910390f35b6100ee6100d936600461087e565b60026020526000908152604090205460ff1681565b60405190151581526020016100c2565b6100ab6103e5565b6101196101143660046107a7565b6104d5565b6040516100c29291906108ae565b6100ab6101353660046108d0565b610591565b6000546100ee90600160a01b900460ff1681565b6100ab6106fe565b600054610169906001600160a01b031681565b6040516001600160a01b0390911681526020016100c2565b600054600160a01b900460ff166101cf5760405162461bcd60e51b815260206004820152600d60248201526c159bdd1a5b99c818db1bdcd959609a1b60448201526064015b60405180910390fd5b3360009081526002602052604090205460ff161561021f5760405162461bcd60e51b815260206004820152600d60248201526c105b1c9958591e481d9bdd1959609a1b60448201526064016101c6565b60015481106102645760405162461bcd60e51b8152602060048201526011602482015270496e76616c69642063616e64696461746560781b60448201526064016101c6565b336000908152600260205260409020805460ff19166001908117909155805481908390811061029557610295610942565b906000526020600020906002020160010160008282546102b5919061096e565b9091555050604051819033907f4d99b957a2bc29a30ebd96a7be8e68fe50a3c701db28a91436490b7d53870ca490600090a350565b60606001805480602002602001604051908101604052809291908181526020016000905b828210156103dc578382906000526020600020906002020160405180604001604052908160008201805461034190610987565b80601f016020809104026020016040519081016040528092919081815260200182805461036d90610987565b80156103ba5780601f1061038f576101008083540402835291602001916103ba565b820191906000526020600020905b81548152906001019060200180831161039d57829003601f168201915b505050505081526020016001820154815250508152602001906001019061030e565b50505050905090565b6000546001600160a01b0316331461040f5760405162461bcd60e51b81526004016101c6906109c1565b600054600160a01b900460ff16156104575760405162461bcd60e51b815260206004820152600b60248201526a2b37ba34b7339037b832b760a91b60448201526064016101c6565b6001805410156104995760405162461bcd60e51b815260206004820152600d60248201526c4e6f2063616e6469646174657360981b60448201526064016101c6565b6000805460ff60a01b1916600160a01b1781556040517f877e2548498f42b7975a186b94ef1d32c86d420b7b806dd2be2bea293b8959049190a1565b600181815481106104e557600080fd5b906000526020600020906002020160009150905080600001805461050890610987565b80601f016020809104026020016040519081016040528092919081815260200182805461053490610987565b80156105815780601f1061055657610100808354040283529160200191610581565b820191906000526020600020905b81548152906001019060200180831161056457829003601f168201915b5050505050908060010154905082565b6000546001600160a01b031633146105bb5760405162461bcd60e51b81526004016101c6906109c1565b600054600160a01b900460ff16156106035760405162461bcd60e51b815260206004820152600b60248201526a2b37ba34b7339037b832b760a91b60448201526064016101c6565b806106405760405162461bcd60e51b815260206004820152600d60248201526c13985b59481c995c5d5a5c9959609a1b60448201526064016101c6565b6040805160606020601f85018190040282018101835291810183815260019282919086908690819085018382808284376000920182905250938552505050602091820181905283546001810185559381522081519192600202019081906106a79082610a4c565b506020919091015160019182015580546106c19190610b0c565b7f96b6e1d9af8279de0ae4d01600bcae708bdb292c4a8f8f150aff92f5caf56a4283836040516106f2929190610b1f565b60405180910390a25050565b6000546001600160a01b031633146107285760405162461bcd60e51b81526004016101c6906109c1565b600054600160a01b900460ff166107715760405162461bcd60e51b815260206004820152600d60248201526c159bdd1a5b99c818db1bdcd959609a1b60448201526064016101c6565b6000805460ff60a01b191681556040517f66b6cb4a09abc3bf1cacc3c67420258856ffdad0deba9078cbd1658957b502189190a1565b6000602082840312156107b957600080fd5b5035919050565b6000815180845260005b818110156107e6576020818501810151868301820152016107ca565b506000602082860101526020601f19601f83011685010191505092915050565b600060208083018184528085518083526040925060408601915060408160051b87010184880160005b8381101561087057888303603f1901855281518051878552610853888601826107c0565b91890151948901949094529487019492509086019060010161082f565b509098975050505050505050565b60006020828403121561089057600080fd5b81356001600160a01b03811681146108a757600080fd5b9392505050565b6040815260006108c160408301856107c0565b90508260208301529392505050565b600080602083850312156108e357600080fd5b823567ffffffffffffffff808211156108fb57600080fd5b818501915085601f83011261090f57600080fd5b81358181111561091e57600080fd5b86602082850101111561093057600080fd5b60209290920196919550909350505050565b634e487b7160e01b600052603260045260246000fd5b634e487b7160e01b600052601160045260246000fd5b8082018082111561098157610981610958565b92915050565b600181811c9082168061099b57607f821691505b6020821081036109bb57634e487b7160e01b600052602260045260246000fd5b50919050565b6020808252600a908201526927b7363c9030b236b4b760b11b604082015260600190565b634e487b7160e01b600052604160045260246000fd5b601f821115610a47576000816000526020600020601f850160051c81016020861015610a245750805b601f850160051c820191505b81811015610a4357828155600101610a30565b5050505b505050565b815167ffffffffffffffff811115610a6657610a666109e5565b610a7a81610a748454610987565b846109fb565b602080601f831160018114610aaf5760008415610a975750858301515b600019600386901b1c1916600185901b178555610a43565b600085815260208120601f198616915b82811015610ade57888601518255948401946001909101908401610abf565b5085821015610afc5787850151600019600388901b60f8161c191681555b5050505050600190811b01905550565b8181038181111561098157610981610958565b60208152816020820152818360408301376000818301604090810191909152601f909201601f1916010191905056fea264697066735822122066ee19400ce55b9d3bb1241ff710391bb8e7bb230cd6bd5be279eb0a3dda701064736f6c63430008180033",
  "linkReferences": {},
  "deployedLinkReferences": {}
}